{
  "contractName": "AutomatedParkingSystem",
  "abi": [
    {
      "anonymous": false,
      "inputs": [
        {
          "indexed": true,
          "internalType": "address",
          "name": "parkingAreaOwner",
          "type": "address"
        },
        {
          "indexed": false,
          "internalType": "string",
          "name": "registrationNumber",
          "type": "string"
        },
        {
          "indexed": false,
          "internalType": "uint256",
          "name": "parkingStartTime",
          "type": "uint256"
        }
      ],
      "name": "VehicleParked",
      "type": "event"
    },
    {
      "anonymous": false,
      "inputs": [
        {
          "indexed": true,
          "internalType": "address",
          "name": "parkingAreaOwner",
          "type": "address"
        },
        {
          "indexed": false,
          "internalType": "string",
          "name": "registrationNumber",
          "type": "string"
        },
        {
          "indexed": false,
          "internalType": "uint256",
          "name": "parkingDuration",
          "type": "uint256"
        },
        {
          "indexed": false,
          "internalType": "uint256",
          "name": "amountPaid",
          "type": "uint256"
        }
      ],
      "name": "VehicleParkedOut",
      "type": "event"
    },
    {
      "inputs": [
        {
          "internalType": "address",
          "name": "",
          "type": "address"
        }
      ],
      "name": "parkingAreas",
      "outputs": [
        {
          "internalType": "address",
          "name": "parkingAreaAddress",
          "type": "address"
        },
        {
          "internalType": "string",
          "name": "name",
          "type": "string"
        },
        {
          "internalType": "uint256",
          "name": "parkingRatePerHour",
          "type": "uint256"
        }
      ],
      "stateMutability": "view",
      "type": "function",
      "constant": true
    },
    {
      "inputs": [
        {
          "internalType": "uint256",
          "name": "",
          "type": "uint256"
        }
      ],
      "name": "parkingAreasAddresses",
      "outputs": [
        {
          "internalType": "address",
          "name": "",
          "type": "address"
        }
      ],
      "stateMutability": "view",
      "type": "function",
      "constant": true
    },
    {
      "inputs": [
        {
          "internalType": "string",
          "name": "",
          "type": "string"
        }
      ],
      "name": "vehicles",
      "outputs": [
        {
          "internalType": "address",
          "name": "owner",
          "type": "address"
        },
        {
          "internalType": "string",
          "name": "registrationNumber",
          "type": "string"
        },
        {
          "internalType": "uint256",
          "name": "parkingStartTime",
          "type": "uint256"
        },
        {
          "internalType": "bool",
          "name": "isCurrentlyParked",
          "type": "bool"
        },
        {
          "internalType": "address",
          "name": "parkingAreaAddress",
          "type": "address"
        }
      ],
      "stateMutability": "view",
      "type": "function",
      "constant": true
    },
    {
      "inputs": [
        {
          "internalType": "uint256",
          "name": "",
          "type": "uint256"
        }
      ],
      "name": "vehiclesRegistrationNumbers",
      "outputs": [
        {
          "internalType": "string",
          "name": "",
          "type": "string"
        }
      ],
      "stateMutability": "view",
      "type": "function",
      "constant": true
    },
    {
      "inputs": [
        {
          "internalType": "string",
          "name": "_name",
          "type": "string"
        },
        {
          "internalType": "uint256",
          "name": "_parkingRatePerHour",
          "type": "uint256"
        }
      ],
      "name": "registerParkingArea",
      "outputs": [],
      "stateMutability": "nonpayable",
      "type": "function"
    },
    {
      "inputs": [
        {
          "internalType": "address",
          "name": "_parkingAreaAddress",
          "type": "address"
        },
        {
          "internalType": "string",
          "name": "_registrationNumber",
          "type": "string"
        },
        {
          "internalType": "uint256",
          "name": "_parkingStartTime",
          "type": "uint256"
        }
      ],
      "name": "parkIn",
      "outputs": [],
      "stateMutability": "nonpayable",
      "type": "function"
    },
    {
      "inputs": [
        {
          "internalType": "address",
          "name": "_parkingAreaAddress",
          "type": "address"
        },
        {
          "internalType": "string",
          "name": "_registrationNumber",
          "type": "string"
        },
        {
          "internalType": "uint256",
          "name": "_parkingEndTime",
          "type": "uint256"
        }
      ],
      "name": "parkOut",
      "outputs": [],
      "stateMutability": "payable",
      "type": "function",
      "payable": true
    },
    {
      "inputs": [
        {
          "internalType": "address",
          "name": "_parkingAreaOwner",
          "type": "address"
        }
      ],
      "name": "getCurrentlyParkedVehicles",
      "outputs": [
        {
          "components": [
            {
              "internalType": "address",
              "name": "owner",
              "type": "address"
            },
            {
              "internalType": "string",
              "name": "registrationNumber",
              "type": "string"
            },
            {
              "internalType": "uint256",
              "name": "parkingStartTime",
              "type": "uint256"
            },
            {
              "internalType": "bool",
              "name": "isCurrentlyParked",
              "type": "bool"
            },
            {
              "internalType": "address",
              "name": "parkingAreaAddress",
              "type": "address"
            }
          ],
          "internalType": "struct AutomatedParkingSystem.Vehicle[]",
          "name": "",
          "type": "tuple[]"
        }
      ],
      "stateMutability": "view",
      "type": "function",
      "constant": true
    },
    {
      "inputs": [],
      "name": "getAllParkings",
      "outputs": [
        {
          "components": [
            {
              "internalType": "address",
              "name": "parkingAreaAddress",
              "type": "address"
            },
            {
              "internalType": "string",
              "name": "name",
              "type": "string"
            },
            {
              "internalType": "uint256",
              "name": "parkingRatePerHour",
              "type": "uint256"
            }
          ],
          "internalType": "struct AutomatedParkingSystem.ParkingArea[]",
          "name": "",
          "type": "tuple[]"
        }
      ],
      "stateMutability": "view",
      "type": "function",
      "constant": true
    },
    {
      "inputs": [
        {
          "internalType": "address",
          "name": "parkingAddress",
          "type": "address"
        }
      ],
      "name": "isParkingExist",
      "outputs": [
        {
          "internalType": "bool",
          "name": "",
          "type": "bool"
        }
      ],
      "stateMutability": "view",
      "type": "function",
      "constant": true
    }
  ],
  "bytecode": "0x608060405234801561000f575f80fd5b506125768061001d5f395ff3fe608060405260043610610090575f3560e01c8063975a91f711610058578063975a91f714610186578063976de5c5146101c4578063ad6e2fbc14610204578063db24a8ad14610220578063f84b700d1461025c57610090565b80631b2cc9b314610094578063555ff1e2146100be5780637dd49078146100fa5780638fd80c221461012257806391d4c8511461014a575b5f80fd5b34801561009f575f80fd5b506100a8610298565b6040516100b5919061166e565b60405180910390f35b3480156100c9575f80fd5b506100e460048036038101906100df91906116c9565b6104ac565b6040516100f1919061170e565b60405180910390f35b348015610105575f80fd5b50610120600480360381019061011b919061187d565b610552565b005b34801561012d575f80fd5b50610148600480360381019061014391906118d7565b6106cc565b005b348015610155575f80fd5b50610170600480360381019061016b9190611943565b6109b2565b60405161017d919061197d565b60405180910390f35b348015610191575f80fd5b506101ac60048036038101906101a791906116c9565b6109ec565b6040516101bb939291906119ed565b60405180910390f35b3480156101cf575f80fd5b506101ea60048036038101906101e59190611a29565b610ab7565b6040516101fb959493929190611a70565b60405180910390f35b61021e600480360381019061021991906118d7565b610bd2565b005b34801561022b575f80fd5b5061024660048036038101906102419190611943565b610e80565b6040516102539190611ac8565b60405180910390f35b348015610267575f80fd5b50610282600480360381019061027d91906116c9565b610f26565b60405161028f9190611c25565b60405180910390f35b60605f808054905067ffffffffffffffff8111156102b9576102b861172f565b5b6040519080825280602002602001820160405280156102f257816020015b6102df6113f7565b8152602001906001900390816102d75790505b5090505f5b5f805490508110156104a45760035f80838154811061031957610318611c45565b5b905f5260205f20015f9054906101000a900473ffffffffffffffffffffffffffffffffffffffff1673ffffffffffffffffffffffffffffffffffffffff1673ffffffffffffffffffffffffffffffffffffffff1681526020019081526020015f206040518060600160405290815f82015f9054906101000a900473ffffffffffffffffffffffffffffffffffffffff1673ffffffffffffffffffffffffffffffffffffffff1673ffffffffffffffffffffffffffffffffffffffff1681526020016001820180546103e990611c9f565b80601f016020809104026020016040519081016040528092919081815260200182805461041590611c9f565b80156104605780601f1061043757610100808354040283529160200191610460565b820191905f5260205f20905b81548152906001019060200180831161044357829003601f168201915b5050505050815260200160028201548152505082828151811061048657610485611c45565b5b6020026020010181905250808061049c90611cfc565b9150506102f7565b508091505090565b5f805f90505b5f80549050811015610548578273ffffffffffffffffffffffffffffffffffffffff165f82815481106104e8576104e7611c45565b5b905f5260205f20015f9054906101000a900473ffffffffffffffffffffffffffffffffffffffff1673ffffffffffffffffffffffffffffffffffffffff160361053557600191505061054d565b808061054090611cfc565b9150506104b2565b505f90505b919050565b5f8111610594576040517f08c379a000000000000000000000000000000000000000000000000000000000815260040161058b90611db3565b60405180910390fd5b60405180606001604052803373ffffffffffffffffffffffffffffffffffffffff1681526020018381526020018281525060035f3373ffffffffffffffffffffffffffffffffffffffff1673ffffffffffffffffffffffffffffffffffffffff1681526020019081526020015f205f820151815f015f6101000a81548173ffffffffffffffffffffffffffffffffffffffff021916908373ffffffffffffffffffffffffffffffffffffffff160217905550602082015181600101908161065b9190611f6e565b50604082015181600201559050505f33908060018154018082558091505060019003905f5260205f20015f9091909190916101000a81548173ffffffffffffffffffffffffffffffffffffffff021916908373ffffffffffffffffffffffffffffffffffffffff1602179055505050565b5f73ffffffffffffffffffffffffffffffffffffffff168373ffffffffffffffffffffffffffffffffffffffff160361073a576040517f08c379a0000000000000000000000000000000000000000000000000000000008152600401610731906120ad565b60405180910390fd5b5f811161077c576040517f08c379a00000000000000000000000000000000000000000000000000000000081526004016107739061213b565b60405180910390fd5b60028260405161078c9190612193565b90815260200160405180910390206003015f9054906101000a900460ff16156107ea576040517f08c379a00000000000000000000000000000000000000000000000000000000081526004016107e1906121f3565b60405180910390fd5b6040518060a001604052803373ffffffffffffffffffffffffffffffffffffffff1681526020018381526020018281526020016001151581526020018473ffffffffffffffffffffffffffffffffffffffff168152506002836040516108509190612193565b90815260200160405180910390205f820151815f015f6101000a81548173ffffffffffffffffffffffffffffffffffffffff021916908373ffffffffffffffffffffffffffffffffffffffff16021790555060208201518160010190816108b79190611f6e565b50604082015181600201556060820151816003015f6101000a81548160ff02191690831515021790555060808201518160030160016101000a81548173ffffffffffffffffffffffffffffffffffffffff021916908373ffffffffffffffffffffffffffffffffffffffff160217905550905050600182908060018154018082558091505060019003905f5260205f20015f90919091909150908161095c9190611f6e565b508273ffffffffffffffffffffffffffffffffffffffff167ff79fd20dd517cc92f5e8d92db35b926674ff7fb9d48dac4ef29a9a402b624b7883836040516109a5929190612211565b60405180910390a2505050565b5f81815481106109c0575f80fd5b905f5260205f20015f915054906101000a900473ffffffffffffffffffffffffffffffffffffffff1681565b6003602052805f5260405f205f91509050805f015f9054906101000a900473ffffffffffffffffffffffffffffffffffffffff1690806001018054610a3090611c9f565b80601f0160208091040260200160405190810160405280929190818152602001828054610a5c90611c9f565b8015610aa75780601f10610a7e57610100808354040283529160200191610aa7565b820191905f5260205f20905b815481529060010190602001808311610a8a57829003601f168201915b5050505050908060020154905083565b6002818051602081018201805184825260208301602085012081835280955050505050505f91509050805f015f9054906101000a900473ffffffffffffffffffffffffffffffffffffffff1690806001018054610b1390611c9f565b80601f0160208091040260200160405190810160405280929190818152602001828054610b3f90611c9f565b8015610b8a5780601f10610b6157610100808354040283529160200191610b8a565b820191905f5260205f20905b815481529060010190602001808311610b6d57829003601f168201915b505050505090806002015490806003015f9054906101000a900460ff16908060030160019054906101000a900473ffffffffffffffffffffffffffffffffffffffff16905085565b5f73ffffffffffffffffffffffffffffffffffffffff168373ffffffffffffffffffffffffffffffffffffffff1603610c40576040517f08c379a0000000000000000000000000000000000000000000000000000000008152600401610c37906120ad565b60405180910390fd5b5f8111610c82576040517f08c379a0000000000000000000000000000000000000000000000000000000008152600401610c79906122af565b60405180910390fd5b600282604051610c929190612193565b90815260200160405180910390206003015f9054906101000a900460ff16610cef576040517f08c379a0000000000000000000000000000000000000000000000000000000008152600401610ce690612317565b60405180910390fd5b5f600283604051610d009190612193565b908152602001604051809103902090505f816002015490505f8184610d259190612335565b90505f610e1060035f8973ffffffffffffffffffffffffffffffffffffffff1673ffffffffffffffffffffffffffffffffffffffff1681526020019081526020015f206002015483610d779190612368565b610d8191906123d6565b905080341015610dc6576040517f08c379a0000000000000000000000000000000000000000000000000000000008152600401610dbd90612450565b60405180910390fd5b8673ffffffffffffffffffffffffffffffffffffffff166108fc8290811502906040515f60405180830381858888f19350505050158015610e09573d5f803e3d5ffd5b505f846003015f6101000a81548160ff0219169083151502179055508673ffffffffffffffffffffffffffffffffffffffff167f734141462a2d21c252710cc8af59817971dba6bf9dc59812ff39cb22c92853b4878484604051610e6f9392919061246e565b60405180910390a250505050505050565b60018181548110610e8f575f80fd5b905f5260205f20015f915090508054610ea790611c9f565b80601f0160208091040260200160405190810160405280929190818152602001828054610ed390611c9f565b8015610f1e5780601f10610ef557610100808354040283529160200191610f1e565b820191905f5260205f20905b815481529060010190602001808311610f0157829003601f168201915b505050505081565b60605f60035f8473ffffffffffffffffffffffffffffffffffffffff1673ffffffffffffffffffffffffffffffffffffffff1681526020019081526020015f2090505f805b60018054905081101561109d57600260018281548110610f8e57610f8d611c45565b5b905f5260205f2001604051610fa3919061252a565b90815260200160405180910390206003015f9054906101000a900460ff1680156110765750825f015f9054906101000a900473ffffffffffffffffffffffffffffffffffffffff1673ffffffffffffffffffffffffffffffffffffffff1660026001838154811061101757611016611c45565b5b905f5260205f200160405161102c919061252a565b908152602001604051809103902060030160019054906101000a900473ffffffffffffffffffffffffffffffffffffffff1673ffffffffffffffffffffffffffffffffffffffff16145b1561108a57818061108690611cfc565b9250505b808061109590611cfc565b915050610f6b565b505f8167ffffffffffffffff8111156110b9576110b861172f565b5b6040519080825280602002602001820160405280156110f257816020015b6110df61142c565b8152602001906001900390816110d75790505b5090505f805b6001805490508110156113ea5760026001828154811061111b5761111a611c45565b5b905f5260205f2001604051611130919061252a565b90815260200160405180910390206003015f9054906101000a900460ff1680156112035750845f015f9054906101000a900473ffffffffffffffffffffffffffffffffffffffff1673ffffffffffffffffffffffffffffffffffffffff166002600183815481106111a4576111a3611c45565b5b905f5260205f20016040516111b9919061252a565b908152602001604051809103902060030160019054906101000a900473ffffffffffffffffffffffffffffffffffffffff1673ffffffffffffffffffffffffffffffffffffffff16145b156113d75760026001828154811061121e5761121d611c45565b5b905f5260205f2001604051611233919061252a565b90815260200160405180910390206040518060a00160405290815f82015f9054906101000a900473ffffffffffffffffffffffffffffffffffffffff1673ffffffffffffffffffffffffffffffffffffffff1673ffffffffffffffffffffffffffffffffffffffff1681526020016001820180546112b090611c9f565b80601f01602080910402602001604051908101604052809291908181526020018280546112dc90611c9f565b80156113275780601f106112fe57610100808354040283529160200191611327565b820191905f5260205f20905b81548152906001019060200180831161130a57829003601f168201915b5050505050815260200160028201548152602001600382015f9054906101000a900460ff161515151581526020016003820160019054906101000a900473ffffffffffffffffffffffffffffffffffffffff1673ffffffffffffffffffffffffffffffffffffffff1673ffffffffffffffffffffffffffffffffffffffff16815250508383815181106113bd576113bc611c45565b5b602002602001018190525081806113d390611cfc565b9250505b80806113e290611cfc565b9150506110f8565b5081945050505050919050565b60405180606001604052805f73ffffffffffffffffffffffffffffffffffffffff168152602001606081526020015f81525090565b6040518060a001604052805f73ffffffffffffffffffffffffffffffffffffffff168152602001606081526020015f81526020015f151581526020015f73ffffffffffffffffffffffffffffffffffffffff1681525090565b5f81519050919050565b5f82825260208201905092915050565b5f819050602082019050919050565b5f73ffffffffffffffffffffffffffffffffffffffff82169050919050565b5f6114d7826114ae565b9050919050565b6114e7816114cd565b82525050565b5f81519050919050565b5f82825260208201905092915050565b5f5b83811015611524578082015181840152602081019050611509565b5f8484015250505050565b5f601f19601f8301169050919050565b5f611549826114ed565b61155381856114f7565b9350611563818560208601611507565b61156c8161152f565b840191505092915050565b5f819050919050565b61158981611577565b82525050565b5f606083015f8301516115a45f8601826114de565b50602083015184820360208601526115bc828261153f565b91505060408301516115d16040860182611580565b508091505092915050565b5f6115e7838361158f565b905092915050565b5f602082019050919050565b5f61160582611485565b61160f818561148f565b9350836020820285016116218561149f565b805f5b8581101561165c578484038952815161163d85826115dc565b9450611648836115ef565b925060208a01995050600181019050611624565b50829750879550505050505092915050565b5f6020820190508181035f83015261168681846115fb565b905092915050565b5f604051905090565b5f80fd5b5f80fd5b6116a8816114cd565b81146116b2575f80fd5b50565b5f813590506116c38161169f565b92915050565b5f602082840312156116de576116dd611697565b5b5f6116eb848285016116b5565b91505092915050565b5f8115159050919050565b611708816116f4565b82525050565b5f6020820190506117215f8301846116ff565b92915050565b5f80fd5b5f80fd5b7f4e487b71000000000000000000000000000000000000000000000000000000005f52604160045260245ffd5b6117658261152f565b810181811067ffffffffffffffff821117156117845761178361172f565b5b80604052505050565b5f61179661168e565b90506117a2828261175c565b919050565b5f67ffffffffffffffff8211156117c1576117c061172f565b5b6117ca8261152f565b9050602081019050919050565b828183375f83830152505050565b5f6117f76117f2846117a7565b61178d565b9050828152602081018484840111156118135761181261172b565b5b61181e8482856117d7565b509392505050565b5f82601f83011261183a57611839611727565b5b813561184a8482602086016117e5565b91505092915050565b61185c81611577565b8114611866575f80fd5b50565b5f8135905061187781611853565b92915050565b5f806040838503121561189357611892611697565b5b5f83013567ffffffffffffffff8111156118b0576118af61169b565b5b6118bc85828601611826565b92505060206118cd85828601611869565b9150509250929050565b5f805f606084860312156118ee576118ed611697565b5b5f6118fb868287016116b5565b935050602084013567ffffffffffffffff81111561191c5761191b61169b565b5b61192886828701611826565b925050604061193986828701611869565b9150509250925092565b5f6020828403121561195857611957611697565b5b5f61196584828501611869565b91505092915050565b611977816114cd565b82525050565b5f6020820190506119905f83018461196e565b92915050565b5f82825260208201905092915050565b5f6119b0826114ed565b6119ba8185611996565b93506119ca818560208601611507565b6119d38161152f565b840191505092915050565b6119e781611577565b82525050565b5f606082019050611a005f83018661196e565b8181036020830152611a1281856119a6565b9050611a2160408301846119de565b949350505050565b5f60208284031215611a3e57611a3d611697565b5b5f82013567ffffffffffffffff811115611a5b57611a5a61169b565b5b611a6784828501611826565b91505092915050565b5f60a082019050611a835f83018861196e565b8181036020830152611a9581876119a6565b9050611aa460408301866119de565b611ab160608301856116ff565b611abe608083018461196e565b9695505050505050565b5f6020820190508181035f830152611ae081846119a6565b905092915050565b5f81519050919050565b5f82825260208201905092915050565b5f819050602082019050919050565b611b1a816116f4565b82525050565b5f60a083015f830151611b355f8601826114de565b5060208301518482036020860152611b4d828261153f565b9150506040830151611b626040860182611580565b506060830151611b756060860182611b11565b506080830151611b8860808601826114de565b508091505092915050565b5f611b9e8383611b20565b905092915050565b5f602082019050919050565b5f611bbc82611ae8565b611bc68185611af2565b935083602082028501611bd885611b02565b805f5b85811015611c135784840389528151611bf48582611b93565b9450611bff83611ba6565b925060208a01995050600181019050611bdb565b50829750879550505050505092915050565b5f6020820190508181035f830152611c3d8184611bb2565b905092915050565b7f4e487b71000000000000000000000000000000000000000000000000000000005f52603260045260245ffd5b7f4e487b71000000000000000000000000000000000000000000000000000000005f52602260045260245ffd5b5f6002820490506001821680611cb657607f821691505b602082108103611cc957611cc8611c72565b5b50919050565b7f4e487b71000000000000000000000000000000000000000000000000000000005f52601160045260245ffd5b5f611d0682611577565b91507fffffffffffffffffffffffffffffffffffffffffffffffffffffffffffffffff8203611d3857611d37611ccf565b5b600182019050919050565b7f5061726b696e6720726174652070657220686f7572206d7573742062652067725f8201527f6561746572207468616e207a65726f0000000000000000000000000000000000602082015250565b5f611d9d602f83611996565b9150611da882611d43565b604082019050919050565b5f6020820190508181035f830152611dca81611d91565b9050919050565b5f819050815f5260205f209050919050565b5f6020601f8301049050919050565b5f82821b905092915050565b5f60088302611e2d7fffffffffffffffffffffffffffffffffffffffffffffffffffffffffffffffff82611df2565b611e378683611df2565b95508019841693508086168417925050509392505050565b5f819050919050565b5f611e72611e6d611e6884611577565b611e4f565b611577565b9050919050565b5f819050919050565b611e8b83611e58565b611e9f611e9782611e79565b848454611dfe565b825550505050565b5f90565b611eb3611ea7565b611ebe818484611e82565b505050565b5b81811015611ee157611ed65f82611eab565b600181019050611ec4565b5050565b601f821115611f2657611ef781611dd1565b611f0084611de3565b81016020851015611f0f578190505b611f23611f1b85611de3565b830182611ec3565b50505b505050565b5f82821c905092915050565b5f611f465f1984600802611f2b565b1980831691505092915050565b5f611f5e8383611f37565b9150826002028217905092915050565b611f77826114ed565b67ffffffffffffffff811115611f9057611f8f61172f565b5b611f9a8254611c9f565b611fa5828285611ee5565b5f60209050601f831160018114611fd6575f8415611fc4578287015190505b611fce8582611f53565b865550612035565b601f198416611fe486611dd1565b5f5b8281101561200b57848901518255600182019150602085019450602081019050611fe6565b868310156120285784890151612024601f891682611f37565b8355505b6001600288020188555050505b505050505050565b7f496e76616c6964207061726b696e672061726561206f776e65722061646472655f8201527f7373000000000000000000000000000000000000000000000000000000000000602082015250565b5f612097602283611996565b91506120a28261203d565b604082019050919050565b5f6020820190508181035f8301526120c48161208b565b9050919050565b7f5061726b696e672073746172742074696d65206d7573742062652067726561745f8201527f6572207468616e207a65726f0000000000000000000000000000000000000000602082015250565b5f612125602c83611996565b9150612130826120cb565b604082019050919050565b5f6020820190508181035f83015261215281612119565b9050919050565b5f81905092915050565b5f61216d826114ed565b6121778185612159565b9350612187818560208601611507565b80840191505092915050565b5f61219e8284612163565b915081905092915050565b7f56656869636c6520697320616c7265616479207061726b6564000000000000005f82015250565b5f6121dd601983611996565b91506121e8826121a9565b602082019050919050565b5f6020820190508181035f83015261220a816121d1565b9050919050565b5f6040820190508181035f83015261222981856119a6565b905061223860208301846119de565b9392505050565b7f5061726b696e6720656e642074696d65206d75737420626520677265617465725f8201527f207468616e207a65726f00000000000000000000000000000000000000000000602082015250565b5f612299602a83611996565b91506122a48261223f565b604082019050919050565b5f6020820190508181035f8301526122c68161228d565b9050919050565b7f56656869636c65206973206e6f74207061726b656400000000000000000000005f82015250565b5f612301601583611996565b915061230c826122cd565b602082019050919050565b5f6020820190508181035f83015261232e816122f5565b9050919050565b5f61233f82611577565b915061234a83611577565b925082820390508181111561236257612361611ccf565b5b92915050565b5f61237282611577565b915061237d83611577565b925082820261238b81611577565b915082820484148315176123a2576123a1611ccf565b5b5092915050565b7f4e487b71000000000000000000000000000000000000000000000000000000005f52601260045260245ffd5b5f6123e082611577565b91506123eb83611577565b9250826123fb576123fa6123a9565b5b828204905092915050565b7f496e73756666696369656e74207061796d656e740000000000000000000000005f82015250565b5f61243a601483611996565b915061244582612406565b602082019050919050565b5f6020820190508181035f8301526124678161242e565b9050919050565b5f6060820190508181035f83015261248681866119a6565b905061249560208301856119de565b6124a260408301846119de565b949350505050565b5f81546124b681611c9f565b6124c08186612159565b9450600182165f81146124da57600181146124ef57612521565b60ff1983168652811515820286019350612521565b6124f885611dd1565b5f5b83811015612519578154818901526001820191506020810190506124fa565b838801955050505b50505092915050565b5f61253582846124aa565b91508190509291505056fea2646970667358221220c318cb576b6d6a5540ab232ff3a90e0685f79836a1e6f53855bd670ed08b2e1e64736f6c63430008150033",
  "immutableReferences": {},
  "source": "// SPDX-License-Identifier: MIT\r\npragma solidity ^0.8.0;\r\n\r\ncontract AutomatedParkingSystem {\r\n    struct ParkingArea {\r\n        address parkingAreaAddress;\r\n        string name;\r\n        uint256 parkingRatePerHour;\r\n    }\r\n\r\n    struct Vehicle {\r\n        address owner;\r\n        string registrationNumber;\r\n        uint256 parkingStartTime;\r\n        bool isCurrentlyParked;\r\n        address parkingAreaAddress;\r\n    }\r\n\r\n    address[] public parkingAreasAddresses;\r\n    string[] public vehiclesRegistrationNumbers;\r\n\r\n    mapping(string => Vehicle) public vehicles;\r\n    mapping(address => ParkingArea) public parkingAreas;\r\n\r\n    event VehicleParked(\r\n        address indexed parkingAreaOwner,\r\n        string registrationNumber,\r\n        uint256 parkingStartTime\r\n    );\r\n    event VehicleParkedOut(\r\n        address indexed parkingAreaOwner,\r\n        string registrationNumber,\r\n        uint256 parkingDuration,\r\n        uint256 amountPaid\r\n    );\r\n\r\n    function registerParkingArea(\r\n        string memory _name,\r\n        uint256 _parkingRatePerHour\r\n    ) external {\r\n        require(\r\n            _parkingRatePerHour > 0,\r\n            \"Parking rate per hour must be greater than zero\"\r\n        );\r\n        parkingAreas[msg.sender] = ParkingArea(\r\n            msg.sender,\r\n            _name,\r\n            _parkingRatePerHour\r\n        );\r\n        parkingAreasAddresses.push(msg.sender);\r\n    }\r\n\r\n    function parkIn(\r\n        address _parkingAreaAddress,\r\n        string memory _registrationNumber,\r\n        uint256 _parkingStartTime\r\n    ) external {\r\n        require(\r\n            _parkingAreaAddress != address(0),\r\n            \"Invalid parking area owner address\"\r\n        );\r\n        require(\r\n            _parkingStartTime > 0,\r\n            \"Parking start time must be greater than zero\"\r\n        );\r\n\r\n        // check if vehicle already exist with this registration number\r\n        require(\r\n            !vehicles[_registrationNumber].isCurrentlyParked,\r\n            \"Vehicle is already parked\"\r\n        );\r\n        vehicles[_registrationNumber] = Vehicle(\r\n            msg.sender,\r\n            _registrationNumber,\r\n            _parkingStartTime,\r\n            true,\r\n            _parkingAreaAddress\r\n        );\r\n        vehiclesRegistrationNumbers.push(_registrationNumber);\r\n        emit VehicleParked(\r\n            _parkingAreaAddress,\r\n            _registrationNumber,\r\n            _parkingStartTime\r\n        );\r\n    }\r\n\r\n    function parkOut(\r\n        address _parkingAreaAddress,\r\n        string memory _registrationNumber,\r\n        uint256 _parkingEndTime\r\n    ) external payable {\r\n        require(\r\n            _parkingAreaAddress != address(0),\r\n            \"Invalid parking area owner address\"\r\n        );\r\n        require(\r\n            _parkingEndTime > 0,\r\n            \"Parking end time must be greater than zero\"\r\n        );\r\n        require(\r\n            vehicles[_registrationNumber].isCurrentlyParked,\r\n            \"Vehicle is not parked\"\r\n        );\r\n\r\n        Vehicle storage vehicle = vehicles[_registrationNumber];\r\n        uint256 parkingStartTime = vehicle.parkingStartTime;\r\n        uint256 parkingDuration = _parkingEndTime - parkingStartTime;\r\n        uint256 parkingCost = (parkingDuration *\r\n            parkingAreas[_parkingAreaAddress].parkingRatePerHour) / 3600;\r\n\r\n        require(msg.value >= parkingCost, \"Insufficient payment\");\r\n\r\n        payable(_parkingAreaAddress).transfer(parkingCost);\r\n\r\n        vehicle.isCurrentlyParked = false;\r\n\r\n        emit VehicleParkedOut(\r\n            _parkingAreaAddress,\r\n            _registrationNumber,\r\n            parkingDuration,\r\n            parkingCost\r\n        );\r\n    }\r\n\r\n    function getCurrentlyParkedVehicles(\r\n        address _parkingAreaOwner\r\n    ) external view returns (Vehicle[] memory) {\r\n        ParkingArea storage parkingArea = parkingAreas[_parkingAreaOwner];\r\n\r\n        uint256 count = 0;\r\n        for (uint256 i = 0; i < vehiclesRegistrationNumbers.length; i++) {\r\n            if (\r\n                vehicles[vehiclesRegistrationNumbers[i]].isCurrentlyParked &&\r\n                vehicles[vehiclesRegistrationNumbers[i]].parkingAreaAddress ==\r\n                parkingArea.parkingAreaAddress\r\n            ) {\r\n                count++;\r\n            }\r\n        }\r\n        Vehicle[] memory parkedVehicles = new Vehicle[](count);\r\n        uint256 index = 0;\r\n        for (uint256 i = 0; i < vehiclesRegistrationNumbers.length; i++) {\r\n            if (\r\n                vehicles[vehiclesRegistrationNumbers[i]].isCurrentlyParked &&\r\n                vehicles[vehiclesRegistrationNumbers[i]].parkingAreaAddress ==\r\n                parkingArea.parkingAreaAddress\r\n            ) {\r\n                parkedVehicles[index] = vehicles[\r\n                    vehiclesRegistrationNumbers[i]\r\n                ];\r\n                index++;\r\n            }\r\n        }\r\n        return parkedVehicles;\r\n    }\r\n\r\n    function getAllParkings() public view returns (ParkingArea[] memory) {\r\n        ParkingArea[] memory parkings = new ParkingArea[](\r\n            parkingAreasAddresses.length\r\n        );\r\n        for (uint256 i = 0; i < parkingAreasAddresses.length; i++) {\r\n            parkings[i] = parkingAreas[parkingAreasAddresses[i]];\r\n        }\r\n        return parkings;\r\n    }\r\n\r\n    function isParkingExist(address parkingAddress) public view returns (bool) {\r\n        for (uint256 i = 0; i < parkingAreasAddresses.length; i++) {\r\n            if (parkingAreasAddresses[i] == parkingAddress) {\r\n                return true;\r\n            }\r\n        }\r\n        return false;\r\n    }\r\n}\r\n",
  "sourcePath": "D:\\Freelance\\parkingsystem\\blockchain\\contracts\\AutomatedParkingSystem.sol",
  "compiler": {
    "name": "solc",
    "version": "0.8.21+commit.d9974bed.Emscripten.clang"
  },
  "schemaVersion": "3.4.16",
  "updatedAt": "2024-04-14T13:21:16.892Z",
  "networkType": "ethereum",
  "devdoc": {
    "kind": "dev",
    "methods": {},
    "version": 1
  },
  "userdoc": {
    "kind": "user",
    "methods": {},
    "version": 1
  }
}